:020000040002F8
:10600000B87B0020D19603009F9802006F99020090
:10601000E79902004B9A02001F9E02000000000058
:10602000000000000000000000000000BF9E020011
:10603000EF9E0200000000002BA0020067A00200FB
:10604000376B03008BA00200A15003006FA1020078
:10605000B7A3020003A40200454E03006FA502008F
:10606000E3B1020003BA0200A3C502006FDC020024
:106070001F040300D71603004F17030063440300F7
:106080003748030015F602003F5503003F58030050
:1060900041F602006F710300F9C80200C7750300E2
:1060A000D98D03009F8F0300AF8F0300FB92030085
:1060B000379A0300A59A03000000000000000000CA
:1060C000A79A0300A99A0300AB9A0300AD9A0300B4
:1060D000AF9A0300B19A0300B39A030000000000D6
:1060E00000000000000000000000000000000000B0
:1060F00000000000000000000000000000000000A0
:10610000000000000000000000000000000000008F
:10611000000000000000000000000000000000007F
:10612000000000000000000000000000000000006F
:10613000000000000000000000000000000000005F
:10614000000000000000000000000000000000004F
:10615000000000000000000000000000000000003F
:10616000000000000000000000000000000000002F
:10617000000000000000000000000000000000001F
:10618000000000000000000000000000000000000F
:1061900000000000000000000000000000000000FF
:1061A00000000000000000000000000000000000EF
:1061B00000000000000000000000000000000000DF
:1061C00000000000000000000000000000000000CF
:1061D00000000000000000000000000000000000BF
:1061E00000000000000000000000000000000000AF
:1061F000000000000000000000000000000000009F
:1062000010F0030F01D1012000E00020C0B2704760
:1062100038B504000025042D0BD2DFF8B41A51F86C
:106220002500002803D0200051F8251088476D1C58
:10623000F1E731BD0278012A09D03BD3032A14D0FB
:1062400008D3052A2AD020D3062A30D032E00022F3
:106250000A702FE001220A7002898A818288CA812D
:10626000C2688A6000220A7424E002220A7002894D
:106270008A818288CA81C2688A60827D062A01D1A9
:10628000012200E000220A7414E003220A70C2888E
:106290008A810289CA81C2688A600BE004220A707E
:1062A000C2888A810022CA8100228A6002E0052217
:1062B0000A70FFE7704702008A4205D2106810F1A9
:1062C000010F01D0012000E00020C0B270474188DA
:1062D00000EB81000C30704738B504000D00200041
:1062E000FFF7F5FF854201D202200AE0A0884FF6B1
:1062F000FF71884202D02088002801D1012000E0EF
:10630000002032BD10B50400002C0ED0DFF8BC0B0D
:10631000C1688C4209D30069A04206D32000FFF770
:106320006FFF002801D0012000E00020C0B210BDA6
:106330000100002904D00868DFF8C82A904201D083
:1063400003200BE04868DFF8882B801A03D0401E3A
:1063500003D1012002E0002000E00320704701008B
:106360000022B2F5806F08D251F8220010F1010F1F
:1063700001D0002002E0521CF3E70120704710B466
:106380001423DFF8504B020092B25A432244128980
:106390005118020092B203FB02F304EB030252898C
:1063A000511889B2B1F5806F01DA012000E00020B8
:1063B000C0B210BC704770B402000A2000231C0059
:1063C000A4B2022C19DA1424DFF8085B1E00B6B25E
:1063D00066432E4476688E420DD21E00B6B204FB90
:1063E00006F42C44646814F58054A14203D20024BE
:1063F0002000138001E05B1CE1E770BC70472DE9D1
:10640000F8430D00140010F5805610F10807022023
:106410002880B84631004046FFF74DFF00282AD0BB
:1064200031004046FFF758FF81464846C0B2002879
:106430000AD1DFF84C0B0168D8F8082091420FD23E
:10644000D8F8081001600BE0002C01D0012020706A
:106450004846C0B2022803D14FF4806028800AE089
:106460002888B8F80210C91C081828804046FFF791
:106470002EFF8046CEE7BDE8F1838A7D032A04DB48
:106480000289CB88DB1C9A1802814389CA889B1A2F
:10649000DB1E4381704780B5002000900823DFF8A1
:1064A000E42ADFF8E40A0168DFF8200A01F041F885
:1064B00002BD1CB50400002000900823DFF8CC2AA0
:1064C0002100DFF8080A01F034F816BD2DE9F04785
:1064D00005000E000024EF1C380080B240F2FE31AF
:1064E000884201DB092035E05FF00008404680B2B9
:1064F000022829DA5FF01409DFF8D8A9404680B2F3
:1065000009FB00F01AF8000000281AD1390089B2FE
:10651000404680B2FFF733FF002812D0012004006C
:10652000A6F80080404680B209FB00F05044414686
:1065300089B209FB01F90AEB0901498979184181FE
:1065400002E018F10108D1E7E4B2002C01D00020EC
:1065500000E00720BDE8F08730B41422DFF874397A
:106560000C00A4B254431C440D00ADB202FB05F272
:106570001A445289121AD21E628130BC704780B50B
:106580000121DFF8FC0901F0D3F902BD2DE9F0414A
:1065900005000E001420DFF83C192A0092B2424395
:1065A0000A44526812F580573468002C04D0200049
:1065B000FFF78DFE804607E02A0092B200FB02F052
:1065C0000844406810F1080839004046FFF773FEA0
:1065D000002814D039004046FFF77EFE002803D083
:1065E00002280AD004D3EFE7C6F80080012007E0B4
:1065F0004046FFF76CFE8046E6E7002000E0002002
:10660000BDE8F08138B504000D006068FFF77AFE40
:10661000002815D02089DFF8A81B098988420FD1EE
:1066200020686168896888420AD161682800FFF79C
:10663000C2FE002801D1012000E00020C0B21EE00F
:10664000002028802888022818DA00200090694657
:106650002888FFF79BFF00280CD0009988682268E3
:106660009042F4D100986060DFF8540B00892081DB
:10667000012004E02888401C2880E3E7002032BD88
:10668000F8B504000D0016001F00DFF8500B00786D
:10669000002801D1022034E0002E01D0002F01D1CA
:1066A00005202EE0B88802282ADADFF82818BA88F0
:1066B00014204243885C00281ED13900B888FFF7B7
:1066C00065FF002816D03968002C03D088882288FE
:1066D0009042F2D1002D03D008882A889042ECD154
:1066E0008868306038687060DFF8D40A00893081CB
:1066F000002006E000203860B888401CB880D1E750
:106700000A20F2BD2DE9F04104002100DFF8000C61
:10671000006801F0E0F905001C260027A8463A00B1
:106720003100404601F02EFA2800BDE8F08110B596
:1067300004002100DFF8D80B006801F0DBF910BD80
:1067400010B504002100DFF8C80B006801F0E0F983
:1067500010BD10B504002100DFF8B40B006801F093
:10676000E6F910BD80B50121DFF8040C01F0EEF868
:10677000002801D0012000E00020C0B202BD2DE9B8
:10678000F84F00240025032600275FF0000840464C
:1067900080B2032880F2A980DFF83007C168424642
:1067A00092B24FF48050424301EB02094846FFF792
:1067B000BFFD82465046C0B2002843D0012862D0B7
:1067C000032840F08F804846FFF7C9FD002827D0F6
:1067D000DFF8B4170868002819D01420DFF8141A5D
:1067E00002222B009BB24343CA542A0092B2424376
:1067F0000A44C2F804902A0092B200FB02F0084456
:1068000002210181DFF8B80945806D1C05E0C1F85F
:106810000090022088800120070054F0010410E05D
:10682000761E1420DFF8CC192A0092B242430A44A3
:10683000C2F8049003222B009BB200FB03F00A5421
:106840006D1C4FE01420DFF8AC1900222B009BB226
:106850004343CA542A0092B242430A44C2F8049005
:106860002A0092B242430A4410322B009BB200FB32
:1068700003F0084410F108014846FFF7C0FD54F04A
:1068800002046D1C2EE03800C0B2002817D014207E
:10689000DFF8601902222B009BB24343CA542A003E
:1068A00092B242430A44DFF8E0361B6853602A0084
:1068B00092B200FB02F00844022101816D1CDFF856
:1068C000C8B6CBF8009000221BF104014846FFF740
:1068D00096FDBBF80400022801D1042000E0082046
:1068E0000443FFE718F1010851E7300080B20228A5
:1068F00001DA002004002000C0B2BDE8F28F38B5F4
:1069000004000D000220A075002000900423221D29
:106910002900DFF8140B00F00CFE002801D1002044
:1069200000E00E2032BD38B504000D0020690028BB
:1069300001D0032000E00120A07500200090042376
:1069400014F10C0215F10801DFF8DC0A00F0F1FD8A
:10695000002801D1002000E00E2032BD38B504002F
:106960000D002078032801D1052000E00620A07545
:1069700000200090042314F10802291DDFF8A80A62
:1069800000F0D7FD002801D1002000E00E2032BD2C
:106990007CB504000D00002000900423DFF88C2A51
:1069A0002100DFF8280500F0C4FD0100002901D016
:1069B0000E200AE00122DFF83C382E00B6B2142087
:1069C000464303EB06000274002076BD38B584B060
:1069D000040001A800210022002380E80E00E068E6
:1069E0000190694601A8FFF70DFE00280AD0029D1C
:1069F000A888E08028882081BDF800100298FFF761
:106A0000C7FF00E00A2005B030BD2DE9FF410500B9
:106A1000DFF81C6A33006A460021A81DFFF730FE2C
:106A20000400002C05D1B1880198FFF7B1FF0400E4
:106A300007E008275FF0000842463900300001F007
:106A4000A1F8200004B0BDE8F08138B504000D00C5
:106A50000120A07500200090E0888300226915F1D4
:106A60000C01DFF8C40900F064FD002801D100200A
:106A700000E00E2032BD10B4DFF844170889401C36
:106A8000088100204880002008730022100080B296
:106A9000022811DADFF85C371400A4B21420444352
:106AA000185D002801D1012000E0002013009BB2F6
:106AB0000B449872521CE9E710BC704730B40200D6
:106AC00000210023180080B2022825DADFF8F04602
:106AD000180080B22044807A00281BD000201D00BE
:106AE000ADB22C44A0721424DFF80857180080B20D
:106AF00060432844C06800280CD1180080B204FB11
:106B000000F405EB0400007C012803D11380012070
:106B1000010001E05B1CD5E70800C0B230BC704743
:106B200080B50520DFF898160870DFF85C040221B4
:106B30008180002301220168DFF8EC0800F0B2FD3B
:106B400002BD70B5DFF878164C881425DFF8846331
:106B5000200080B268433044C06800280FD1042070
:106B6000087000230122200080B205FB00F506EB2F
:106B700005004168DFF8B00800F094FD01E0FFF780
:106B8000CFFF70BD7CB5DFF838064468DFF8F81336
:106B90000A68898802EB81056688F61C032101706A
:106BA00000210091310089B28B0042682900DFF892
:106BB000780800F0BEFC76BD80B5DFF8CC08011D7A
:106BC0004088FFF7E3FC002802D0FFF7DBFF01E07D
:106BD000FFF7B7FF02BD80B5DFF8E40506210170BD
:106BE000DFF8101642881420424301EB020040688F
:106BF000FFF75FFC02BD80B5DFF8C4050721017017
:106C000000214160FFF747FC02BD10B5DFF8B04539
:106C1000A01CFFF753FF002808D10020207000209F
:106C200060800020606041F61D5001E0FFF7C4FF66
:106C300010BDDFF88C0540684188C91CDFF8482387
:106C40009388CB189380704730B4DFF83C13086802
:106C50001422DFF86C35DFF89C455D8855432544E8
:106C60006D680D605D885543254468605B8802FB54
:106C700003F222448B88138102228A8030BC704741
:106C800010B5DFF83C45207800280AD003280DD045
:106C9000042810D0052813D0062811D0072812D0B8
:106CA00014E0FFF7E8FE012020700FE0FFF7C1FFBE
:106CB000022020700AE0FFF7C7FF0620207005E0E1
:106CC0000720207002E001202070FFE710BD0000C7
:106CD000E45900202DE9F04104000E000F25002C9E
:106CE00005D00020DFF8A4174860012088E0307943
:106CF000002805D002283AD008D3032844D076E0F3
:106D000001203071FFF7C7FB050070E000275FF03E
:106D10000008404680B202281BDA14206D49424622
:106D200092B242438A5C022A10D1002243469BB2AF
:106D30004343CA5401221700424692B200FB02F0BC
:106D400008444068FFF7B5FB050002E018F10108B0
:106D5000DFE73800C0B2002808D1DFF83007012192
:106D600001700021416041F61D5049E03FE00020E4
:106D70003071854802218180002301220168534837
:106D800000F090FC050032E0002030717E4F386842
:106D9000FFF78FFB0500DFF82804408839681422CC
:106DA0004C4B84461FFA8CFC02FB0CFC9C44DCF828
:106DB00004C0C7F800C084461FFA8CFC02FB0CFC20
:106DC0009C44CCF8041084461FFA8CFC02FB0CFC9B
:106DD0009C44B7F804E0ACF808E05FF0020CA7F8B8
:106DE00004C0002780B202FB00F29F54FFE7002D91
:106DF00005D00020DFF8941648600E2000E0002047
:106E0000BDE8F081DEC0ADDE2DE9F04104000E00EA
:106E10003049B28A1420424301EB0207002C05D00E
:106E200031003800FFF729FB01204DE078683989EF
:106E300000EB8108B07D002817D002281BD026D394
:106E4000042804D01DD3062833D026D334E0DFF83D
:106E5000400600214160B1690160DFF83816FFF794
:106E6000D1FB002801D10A202EE041463000FFF777
:106E700046FD050021E041463000FFF754FD0500C6
:106E80001BE041463000FFF7E0FD050015E04146FC
:106E90003000FFF763FD05000FE00620B075DFF856
:106EA000F4050188DFF8E8054068FFF771FD05008B
:106EB00003E041F61D5500E00F25002D03D0310001
:106EC0003800FFF7DAFA2800BDE8F0813030002002
:106ED000FE011EF1CC57002038B504000D00002C37
:106EE00001D0012019E02879002803D0022810D011
:106EF00006D311E0022028712800FFF767FD0CE09F
:106F00002800FFF782FD0A2802D141F61D51080032
:106F100003E041F61D5000E00F2032BD38B50400FB
:106F2000002C01D0012029E0A54D287B002802D0AB
:106F30000020287301E0FFF7A3FE287801280AD07B
:106F400002280BD003280CD004280DD006280ED020
:106F500007280FD011E0FFF758FE0FE0FFF72CFED7
:106F60000CE0FFF70FFE09E0FFF7EBFD06E0FFF78F
:106F700032FE03E0FFF73FFE00E00F2032BD0000CD
:106F8000345B002098980300B85A0020A0980300B2
:106F900030B585B00400DFF800552868002804D11A
:106FA000DFF8F804FFF7CCFB286028680078012898
:106FB00009D01FD303280CD00BD305280FD00ED334
:106FC000062812D016E029682000FFF783FE04008F
:106FD00012E029682000FFF717FF04000CE0296881
:106FE0002000FFF779FF040006E02000FFF796FF7E
:106FF000040001E00F200400002C1ED0684614217C
:1070000000F002FE41F61D50844201D1002000E054
:107010002000019069462868FFF70CF96846FFF7E1
:10702000F7F80020286000200400DFF87004FFF764
:1070300090FBFFF797FB0028ADD105B030BD80B5C0
:107040000121DFF82C0300F065FC002802D10020AC
:10705000FFF79EFF01BD10B504006068FFF798FFC1
:1070600010BD2DE9FE4F04000D00160099465FF09B
:10707000000A5FF0000859480078002801D102207A
:107080006DE0002D01D1052069E028884FF6FF71E1
:10709000884202D06888002801D104205FE0686837
:1070A000FFF7AEF8002801D1032058E0002E0BD1E5
:1070B000D5F808B06946584680B2FFF707FA0700CE
:1070C000002F06D038004AE03088ADF80000B6F84E
:1070D00002B001A8FFF716FB8046B8F1000F07D1F8
:1070E000BDF80010584680B2FFF736FA082036E0A7
:1070F00088F80090002088F81600BDF80000A8F875
:1071000014006868C8F81000FFF739FAC8F80C00D6
:107110002888A8F808006888A8F80400A8F806B02D
:107120004846C0B2032805D1042088F8160020681C
:10713000C8F81800A8F80AA001A8FFF7F8FA002C70
:107140000AD000206060D8F80C0020600020A072F7
:10715000DFF8340300892081FFF771FF0020BDE8CC
:10716000FE8F10B50400DFF838030168042901D14F
:107170000C2008E0DFF82C13026841F822400121BE
:1071800000F0D6FB002010BDDFF81C030068DFF81C
:107190001C130968DFF81823126810F1010F01D1E0
:1071A00010004843704738B54FF44054DFF8785228
:1071B000FFF7EAFF28612869001BE86031BD000085
:1071C000045A002080B5FFF7EEFF0022DFF8E4123A
:1071D000DFF8540200F074F902BD0000B05A00203C
:1071E00080B51C238C22DFF8D0124948006800F0DB
:1071F0004AFC01BDCC57002070B586B001A814210F
:1072000000F002FDDFF884522878002804D001A89D
:10721000FEF7FEFF002053E0281D00F0A4FB00282D
:1072200001D000204CE0FFF7CDFF0400002C01D07E
:10723000200045E0FFF7D4FFFFF7A1FA0600300079
:10724000C0B2002804D0022802D0062802D00AE0EA
:107250000B2035E0012028700020686001A8FEF7AF
:10726000D7FF00202CE06846FFF74CFA0500002D00
:1072700001D1082024E0012028703000C0B201288C
:107280000CD003280AD0052811D007280FD00928D0
:1072900007D00A2808D00B2803D00BE00020287163
:1072A00008E00320287105E00220287102E0012097
:1072B0002871FFE76846FFF73AFAFFF7C0FE0020A3
:1072C00006B070BD7CB504000D00002C01D0002D6F
:1072D00001D105201BE069462000FFF793F9002843
:1072E00014D066680121DFF8D421BDF800301420E5
:1072F000434302EB03000C3000F01AFB2E60606881
:107300000C3068600120A072002000E00A2076BDE9
:107310004C9A03001CB50400002C01D1052025E087
:1073200069462000FFF76EF900281ED01421DFF80F
:107330008C21BDF8000048431044C068002812D0DA
:10734000A07A00280FD0BDF8000048431044BDF8D3
:10735000003001FB03F11144C968491EC1600020DF
:10736000A072002002E0062000E00A2016BD000006
:107370002C5B002038B504000D00022300222900F8
:107380002000FFF76EFE32BD38B504000D00002C62
:1073900001D1052005E00323002229002000FFF78A
:1073A00060FE32BD38B5050038480078002801D1AC
:1073B00002201AE028004FF6FF7180B2884201D106
:1073C000042012E06846FFF79DF90400002C01D16B
:1073D00008200AE00520207001202071E580684621
:1073E000FFF7A5F9FFF72BFE002032BD1CB527489B
:1073F0000078002801D1022015E06846FFF782F9E5
:107400000400002C01D108200DE006202070684601
:10741000FFF78DF91C490878002801D00120087376
:10742000FFF70DFE002016BD30300020509A0300FB
:10743000C05A002033B581B014001D002B0022007B
:1074400002A901A8FFF71CF93EBD31B50C001500DB
:107450002B00220069460020FFF712F932BD31B53A
:107460000C0015002B00220000216846FFF708F9E8
:1074700032BD0200002A01D0002901D1052002E01E
:107480001068086000207047045A0020B05A00209D
:10749000505A0020805B0020385B00203C5B0020BD
:1074A000305B0020E4590020141000101000001080
:1074B00014000010FC8D030008520020CC5700205F
:1074C000F8B504000D001700002C14D10E20009018
:1074D000DFF8C032DFF8C022DFF8C012DFF8C002E8
:1074E000DFF8C062801BC008000450F0010000F00B
:1074F000B9FD0E201CE0002D14D10E200090DFF805
:107500009432DFF8A422DFF89412DFF89402DFF857
:107510009462801BC008000450F0010000F0A2FD3E
:107520000E2005E02560390020002268126890478F
:10753000F2BD2DE9F8430400884615001E00DDF871
:107540002090002C10D10E200090DFF86432924A77
:1075500092499348934FC01BC008000450F00100AB
:1075600000F080FD0E2098E0002D0FD10E2000903D
:107570008F4B904A89498A488A4FC01BC008000433
:1075800050F0010000F06EFD0E2086E0206800281B
:107590000FD108200090864B844A80498048814F53
:1075A000C01BC008000450F0010000F05BFD082083
:1075B00073E0002E0FD1092000907D4B38A277494F
:1075C0007748784FC01BC008000450F0010000F05D
:1075D00049FD092061E060684068B6FBF0F100FBFE
:1075E000116000280FD009200090714B724A6B493E
:1075F0006B486C4FC01BC008000450F0010000F045
:1076000031FD092049E0404600F0F1F800280FD193
:1076100010200090664B694A60496148614FC01B69
:10762000C008000450F0010000F01CFD102034E000
:10763000280000F0DCF800280FD1102000905C4BEF
:107640005F4A56495648574FC01BC008000450F0C7
:10765000010000F007FD10201FE03200414620002D
:1076600000F0B8F800280FD110200090504B554A78
:107670004A494B484B4FC01BC008000450F0010062
:1076800000F0F0FC102008E0CDF8009033002A0054
:10769000414620002768FF68B847BDE8F283000034
:1076A0006C656E002DE9FC4104000F001500984642
:1076B000002C0FD10E200090434B374A37493848F1
:1076C000384E801BC008000450F0010000F0CAFCD6
:1076D0000E205BE0206800280FD1082000903A4B74
:1076E000324A2E492E482F4E801BC008000450F00D
:1076F000010000F0B7FC082048E0002D0FD1092060
:107700000090314B22A225492548264E801BC008F7
:10771000000450F0010000F0A5FC092036E039001B
:10772000200000F06CF800280FD110200090264BAC
:10773000264A1A491A481B4E801BC008000450F004
:10774000010000F08FFC102020E06068026802FB5E
:1077500005F23900200000F03DF800280FD110207C
:107760000090194B1A4A0D490D480E4E801BC00857
:10777000000450F0010000F075FC102006E04346C4
:107780002A003900200026683669B047BDE8F68136
:107790006C656E004493030008990300748903002C
:1077A00058720300287203001099030078970300B1
:1077B0005893030018990300A0890300EC9003007C
:1077C000988C0300848B03006C930300AC8B030044
:1077D000A47F0300C368994206D300695118491E6B
:1077E000884201D3012000E00020C0B2704710F0B1
:1077F000030F01D1012000E00020C0B270474068B3
:107800000068401E014201D1012000E00020C0B20A
:107810007047F0B40246106895681318506803EB7F
:107820005004C0071DD54D441BE013F8017B05F83B
:10783000017B491EF9D1A0B1B60813F8011B06F06F
:107840000306032E08BF13F8016B01EB0621494222
:10785000801C294405D011F8016B05F8016B401E0E
:10786000F9D1A3420ED013F8016B16F0030104BF47
:1078700013F8011BC91C30090F28DAD113F8010BCA
:107880000F30D6E7F0BC02F10C00704710B40200D4
:1078900052E8000F0B4642E8003494F0000FF7D195
:1078A00010BC704710B4020052E8000F40EA010318
:1078B00042E8003494F0000FF6D110BC704700008D
:1078C00010B4020052E8003F43EA010042E800041D
:1078D00094F0000FF6D110BC7047000010B4020005
:1078E00052E8000F00EA010342E8003494F0000F70
:1078F000F6D110BC7047000010B4020052E8003FFF
:1079000003EA010042E8000494F0000FF6D110BC35
:107910007047000010B4020052E8000F00EB0103B2
:1079200042E8003494F0000FF6D110BC704700001C
:1079300010B4020052E8003F03EB010042E80004EB
:1079400094F0000FF6D110BC7047000010B4020094
:1079500052E8003FA3EB010042E8000494F0000F5E
:10796000F6D110BC704710B5040001212000FFF7CC
:1079700099FF10BD10B5040001212000FFF7A0FF02
:1079800010BD10B5040000212000FFF7A7FF10BDB7
:107990003CB4020052E8015FABB2D489234494891D
:1079A000A34228BF1B1B1489A34202BFBFF32F8F22
:1079B000002007E0C3EA050342E80134002CE9D1C6
:1079C0004FF0010001958DF80000019808609DF8C6
:1079D000000036BC7047000050E8012FC2EA0242A6
:1079E00040E801210029F7D1704700003CB40200B3
:1079F00052E8025F1FFAA5F3D488A34202BFBFF387
:107A00002F8F00200DE0D48923449489A34228BFFE
:107A10001B1BC5EA034342E80234002CE8D14FF0B7
:107A2000010001958DF80000019808609DF80000A4
:107A300036BC704750E8022FC2EA224240E80221D9
:107A40000029F7D17047000081B0010051E8022FF2
:107A5000CB88B2EB324F4FF0000017BF92B243EA2F
:107A6000034342EA034304E04A68B2EB324F08BFE3
:107A7000012041E80232002AE8D18DF800009DF88B
:107A8000000001B0704770B40400002901D10E203D
:107A900013E0100080B21D00ADB290FBF5F605FBBF
:107AA0001600002801D0092007E021600020606056
:107AB0000020A060A281E381002070BC704710B557
:107AC00004002000FFF7C0FFC0B2002801D0002052
:107AD00000E0112010BD38B504000D002900200081
:107AE000FFF756FF002803D020682988084400E0EB
:107AF000002032BD38B504000D002888698888420E
:107B000004D12000FFF768FF012000E0002032BD13
:107B100038B504000D0029002000FFF767FF00289A
:107B200003D020686988084400E0002032BD38B5E1
:107B300004000D0028886988884204D12000FFF7DE
:107B400079FF012000E0002032BD30B4002513E0B1
:107B500050F8042BD30744BFA9F101039A18091F59
:107B6000042942F8045BFAD213468C0744BF1580FF
:107B70009B1CC90748BF1D7050F8041B0029E7D1A2
:107B800030BC704762F30F2262F31F42401810F0BE
:107B9000030308D0C91A1FD3DB0748BF00F8012D23
:107BA00028BF20F8022D130030B4144615461039B2
:107BB00028BF20E93C00FAD8490728BF20E90C007B
:107BC00048BF40F8042D890028BF20F8022D48BF87
:107BD00000F8012D30BC7047C91818BF00F8012DFE
:107BE000CB0728BF00F8012D7047B1F5807F02D385
:107BF0004FF0FF3070470170012070470078401E41
:107C00008041C043C00F7047002200F043BC0268AF
:107C1000531C03601170704738B504000D00290033
:107C2000200022681268904731BD10B50400200082
:107C300021684968884710BD10B5040020002168FC
:107C40008968884710BDC26811717047C0680079A3
:107C500070470121C26851717047C0684079704710
:107C600070B505000E00DFF80408FF2181600021D7
:107C70000160002141600021C0F818140021C0F803
:107C80001414002180F82014DFF8E40700F01BFC36
:107C90000400002C01D020000AE0DFF8D80700F033
:107CA00025FDDFF8D407DFF8D417411AC9080020F2
:107CB00070BDDFF8C407DFF8C417401AC00870476A
:107CC00070B504000D002800C0B2002814D0FFF7E2
:107CD000F0FF010000228A420CD2DFF8A40700EB7B
:107CE000820318882668B04202D12260002004E096
:107CF000521CF0E7052000E0002070BD11B581B0F6
:107D00000C002100C9B201A8FFF7DAFF002806D154
:107D1000DFF87007019900EBC100006800E0002067
:107D200016BD0200DFF85C0700EBC2030800C0B21A
:107D3000012806D00DD3032807D004D3042806D089
:107D400007E0022006E0042004E0187902E05879F8
:107D500000E00020C0B2704710B4030000201A6891
:107D6000C2F38002002A18D01A7812F00302012A06
:107D700002D0022A08D00EE00A681C68C4F38314FB
:107D8000A41CA2180A6006E00A681C68A40DA41CC2
:107D9000A2180A60FFE701221000C0B210BC7047B1
:107DA0002DE9F84384B00024DFF8C05615F5836050
:107DB000FFF7E0FD05F214494846FFF7DBFD686870
:107DC0000090AE680098304005EB800010F10C0781
:107DD00069463800FFF7C0FF002806D00098304001
:107DE00005EB80000C300700F2E75FF00008B8F107
:107DF000020F0DD20098304005EB8000C06801A949
:107E000041F828000098401C009018F10108EEE7A6
:107E1000019810F0030001280CD0022814D1BDF8FD
:107E20000A00040000980199890DC91C10EB91000B
:107E3000009009E0BDF80A00040000990198C0F321
:107E4000831041180091FFE74846FFF79AFD0100B3
:107E5000002901D000986860A4B2200005B0BDE8F8
:107E6000F08380B50021DFF82006FFF70FFD010049
:107E700081F3100002BD2DE9F84304000D00160047
:107E80001F00DDF82080A1465FEA1949FFF7E9FFEE
:107E9000DFF8D8157A1C18EA020201EB820259EACF
:107EA0000043D36018EA070201EB82010C310A6833
:107EB00064F3C5020A600A6866F389120A600A68F8
:107EC00065F39F220A6001220B6862F301030B60D5
:107ED0000A6832F004020A60BDE8F1832DE9FE4F22
:107EE00004000D001600A01C0190012700208DF851
:107EF0000000684600F05EFCDFF87085D8F80000EE
:107F00002860D8F80800401CD8F80090B0EB0909A8
:107F1000D8F8040010EB09090198814517D208F23E
:107F20001C4B01215846FFF703FDFFF739FF82463E
:107F300051465846FFF7FCFCD8F80810491CD8F801
:107F40000000091AD8F8040041188946E4E738000F
:107F5000C0B2002823D000213000C0B2002807D0D2
:107F6000012060F3010151F0040164F3891106E07E
:107F7000022060F3010151F0040164F39F51D8F82D
:107F80000020D8F80800024008EB820010F10C0233
:107F90001160D8F800300198C318C8F800309DF877
:107FA000000000F00DFC3800C0B2BDE8FE8F2DE9E6
:107FB000FE4F04000D0016001F00DFF8B094D9F842
:107FC0000880012201A93800FFF788FF00281BD094
:107FD000DDF804A01AF1020A5FF0000BBB450BD2DA
:107FE00018EA0A0009EB800056F82B10C1601AF15C
:107FF000010A1BF1010BF1E7CDF80080019B3A006B
:1080000029002000FFF737FF99F82004002803D04B
:1080100000F061F80028FBD1BDE8F78F38B5040007
:108020000D000023002229002000FFF7C0FF31BD12
:108030007CB504000D001600009601236A46290055
:108040002000FFF7B4FF73BDFEB504000D0016005D
:108050001F000096019702236A4629002000FFF7BF
:10806000A6FFF7BD2DE9FF4104000D0016001F001B
:10807000DDF8288000960197CDF8088003236A4632
:1080800029002000FFF793FFBDE8FF812DE9F843A9
:1080900084B004000D0016001F00DDF83080DDF80C
:1080A000349000960197CDF80880CDF80C90042309
:1080B0006A4629002000FFF77AFF05B0BDE8F0838B
:1080C000DFF8A80341680068814201D1012000E087
:1080D0000020C0B270472DE9F04F8BB0FFF7F0FFE2
:1080E000002801D000205FE1DFF880730020C7F88E
:1080F0001804BFF34F8F78680090B8680290009919
:108100000298014007EB81000C3009900025002601
:108110000020089069460998FFF71EFE002813D03A
:10812000D7F8180400280FD100983968884203D383
:1081300038687860002037E100990298014007EB29
:1081400081000C300990E5E75FF00008B8F1020FFC
:108150000ED200990298014007EB8100C06803A984
:1081600041F828000098401C009018F10108EDE744
:10817000039810F00300022840F07F80DDF80C9097
:108180005FEA99590398800D502804DADDF80CA0B5
:108190005FEA9A5A01E05FF0500A03986AF39F5031
:1081A00003901AF108000A900398C0F3C2000890E7
:1081B0000A99AF4800F08DF90500002D00F0A2806B
:1081C000280000F0ECF93300082203A9280000F091
:1081D0006FFA08360299491C009A02980240891ADF
:1081E0008C00544535D2002C07D0009902980140EC
:1081F00007EB81000C30079002E017F10C000790AC
:10820000002C01D0A34600E0D346002C03D017F188
:108210000C00069001E000200690002C02D0BAEB82
:10822000040000E000208DF8040033005A46D2B26A
:108230000799280000F03CFA56FA8BF606980028B9
:1082400014D033009DF804200699280000F030FA7D
:108250000CE000990298014007EB810010F10C0B33
:10826000330052465946280000F022FA009819F1CE
:10827000030910EB9900009044E0039810F003000C
:1082800001283FD10398C0F38310062803DA03982E
:10829000C0F3831000E00620039960F38911039175
:1082A0000398C0F38314A41C0398C0F3C200089081
:1082B000A1006F4800F00DF90500002D22D0280024
:1082C00000F06DF93300082203A9280000F0F0F94E
:1082D0000836002080460398C0F38310804511D2F1
:1082E0000099481C0090330004220298014007EBDB
:1082F000810010F10C01280000F0DAF9361D18F1A8
:108300000108E8E7002D33D0D7F81044D7F8180457
:10831000002803D0280000F04AF93DE0002C13D0DB
:108320005FF000092000FFF798FC012801D101202F
:1083300081464846C0B2002803D029002000FFF73C
:108340006BFCE0680468E9E7280000F030F90020E1
:108350008DF8040001A800F02DFAD7F818040028C1
:1083600001D1009878609DF8040000F029FA13E02C
:10837000D7F81044002C05D02000FFF75DFCE06822
:108380000468F7E7414942483C4A801AC0080004A3
:1083900050F00200FFF742FEFFF792FE002801D1E5
:1083A000012000E00020C0B20BB0BDE8F08F70B536
:1083B00000260A2E1ADA2D48D0F8100404000120F5
:1083C0000500002C0AD02000FFF740FCB04202D18B
:1083D0000020050002E0E0680468F2E72800C0B26F
:1083E000002801D0300003E0761CE2E75FF0FF30A8
:1083F00070BD70B504000D00FFF7D9FF060016F13F
:10840000010F01D130001BE030000100C9B2200093
:10841000FFF719FC1549D1F81004002805D1C1F85F
:1084200010440020E168086009E0D1F81004C06839
:108430000068E2681060D1F81004C0680460300081
:1084400070BD10B50948D0F81044012180F82014FF
:10845000002C08D02000FFF7FCFB2000FFF7E5FB15
:10846000E0680468F4E710BD000000005040002000
:10847000989403009C970300E072030028720300A5
:1084800000000000287203006C4400208093030069
:108490006072030000B500BF130096469446103981
:1084A00028BFA0E80C50FAD85FEA417C28BF0CC076
:1084B00048BF40F8042BC90728BF20F8022B48BF4B
:1084C00000F8012B00BD10B50400200000F08DF96C
:1084D00010BD2DE9F84F06000F00B6F81080B8F176
:1084E000040818EB0700C01CB0FBF8F9300000F0DE
:1084F0009AF90500002D01D1002027E00020287105
:1085000001206871A5F806800095CA465FFA8AFACC
:10851000BAF1010A009806605FF0000BD34514D24F
:10852000300000F080F90400002C09D06879401C6C
:10853000687100980460266000941BF1010BEDE760
:10854000280000F005F8002000E02800BDE8F28FC8
:108550002DE9F84F05002E0077792900B8465FFA1B
:1085600088F8B8F101080020404502D20968401C93
:10857000FAE7D1F80090AA465FF0000B3800C0B2CD
:1085800083450AD2DAF8000004005146484600F05C
:1085900076F9A2461BF1010BF0E7BDE8F18F38B583
:1085A000040025000121281DFFF7C2F931BD7CB56B
:1085B000040025000121281DFFF7C8F900906E4630
:1085C0003078002802D12000FFF7C2FF73BD2DE9EB
:1085D000FF4F87B007980190DDF81C800198C6888E
:1085E000019840794643361F0198C08800900A9848
:1085F000001D0099B0FBF1F50A99091D0098B1FB27
:10860000F0F7009800FB1717099801680A984118BD
:108610008E4202D20A9C341B01E009980468099832
:108620000460002D03D0D8F800806D1EF9E75FF0DC
:108630000009DDF800A0BAEB070A544501D2A246B2
:10864000FFE7002C31D008984844039008EB07005E
:10865000001D02909DF8500000280BD0CDF814A00A
:1086600002980490DDF80CB0059A0499584600F081
:108670001FF90AE0CDF814A003980490DDF808B0C3
:10868000059A0499584600F013F900200700D8F81D
:108690000080B4EB0A041AEB09090098844201D265
:1086A000A246CEE7DDF800A0CBE70BB0BDE8F08F27
:1086B000FEB504000D0016001F000196002000907A
:1086C0003B0001AA29002000FFF781FFF7BDFEB59E
:1086D00004000D0016001F000196012000903B00D1
:1086E00001AA29002000FFF772FFF7BD0021826870
:1086F000916000218268116100218268516100212E
:108700008268D16000218268516000218268116016
:1087100070471E06EFF3108072B6704762B670475E
:1087200038B50500FFF7F6FF04001C4988680028EB
:1087300010D1012088601A481A4A136803400B6060
:108740001060194802684A605FF0FF310160002044
:10875000287001E001202870002C01D1FFF7DEFF16
:10876000002032BD70B505000C4EB068002812D054
:108770002800C0B200280ED1FFF7CCFF04003068FB
:108780000A49086070680A4908600020B060002C3F
:1087900001D1FFF7C3FF002070BD0000445A002044
:1087A000FC06FFBD80E100E084E100E000E100E0C4
:1087B00004E100E010B504002000FFF7B1FF10BD98
:1087C00010B504002000C0B2FFF7CCFF10BDC26896
:1087D000C9B2008A414302EB01007047C268891A9E
:1087E000008AB1FBF0F0C0B2704710B4010000295C
:1087F00001D10E2015E088684A68821A48680B6823
:1088000018601000421EC0B2002806D00868006838
:10881000431C0C6823600270F3E700200B6818719A
:10882000002010BC704738B50400002500208DF8EA
:1088300000006846FFF7BEFF60682168096888424B
:1088400017D220680068401E216808602068006810
:1088500001782000FFF7BBFF0500A16820680068D1
:10886000081A216809790200D2B2914201D2216826
:1088700008719DF80000FFF7A3FF280032BDF8B58E
:1088800004000D002E0000208DF800006846FFF760
:1088900091FF20680768781C21680860310020007B
:1088A000FFF79CFF38709DF80000FFF789FFF1BDCE
:1088B00062B38B0708D0521E11F8013B00F8013B50
:1088C00000F024808B07F6D1830740F0208000BFA2
:1088D000103A07D330B4B1E83810103AA0E8381095
:1088E000F9D230BC530724BFB1E80810A0E8081043
:1088F00044BF51F8043B40F8043BD20724BF31F891
:10890000022B20F8022B44BF0B7803707047121F14
:1089100017D35B0009D151F8043B20F8023B1B0C34
:10892000121F20F8023BF6D20BE051F8043B00F88E
:10893000013B1B0A20F8023B1B0C121F00F8013BF5
:10894000F3D238BF121D521E24BF11F8013B00F8AC
:10895000013BF8D8704700002DE9F04F0FF2A41C3E
:10896000A1B0DCE90089CDE900892A9DDFF8DC9B14
:10897000049100248DF843500D944FF0FF38824647
:1089800016461F460FE0B3462C461BF8011B049801
:10899000D0470028049000F0A2800D98401C641E6F
:1089A0000D90F2D176193078252808D100210022C7
:1089B0000791089209910A920B910C920DE06A4678
:1089C0004146304600F0BDFF050001D10D98A1E001
:1089D000D9D50125E6E741F0010116F8010F20285D
:1089E000F9D023280CD02B2804D02D2805D03028EE
:1089F00009D076E041F00201EFE741F00401ECE735
:108A000041F00801E9E741F01001E6E70F9209E0C3
:108A10000F98484505DA00EB800402EB4402303A37
:108A20000F92761C3278A2F130000A28F0D3307809
:108A30002E2818BFCDF8388022D116F8010F2A2829
:108A400007D138683860761C50F8042B38600E92D5
:108A500016E02D280CBF761C002000220E920AE0A2
:108A600040B90E9A4A4505DA02EB820403EB44034F
:108A7000303B0E93761C3378A3F130020A2AEFD3F1
:108A8000ADF8401021A0317800F066FF08B116F86B
:108A9000010B8DF842009DF84200682804D130781F
:108AA00068280AD1622105E06C2804BF30786C2860
:108AB00003D171218DF84210761C12A806903A4617
:108AC00016F8013B02A9504600F064F838B912AA22
:108AD00002A9504600F0C8F900287FF564AF40466F
:108AE00018E02A2892D13A683A6052F8040B3A60AA
:108AF00000280F9003D540420F9041F00401761CEE
:108B000095E700000000000000000000686A6C7437
:108B10007A4C000021B0BDE8F08F622820D0682890
:108B200011D06A2803D06C2827D0712825D1086875
:108B3000C01D20F007000860D0E90023083008605D
:108B4000194610467047002A0A680A60106803D068
:108B5000121D0A6000B217E0121D0A6080B217E011
:108B6000002A0A680A60106803D0121D0A6040B229
:108B70000AE0121D0A60C0B20AE0002A0A680A6010
:108B8000106803D0121D0A60C1177047121D0A60D9
:108B9000002170477CB50D4611461C462E69B4F184
:108BA000250200F04F811C3A00F08480121F022A37
:108BB00040F280800E3A00F00981521F59D0093AE4
:108BC00078D0921E16D0521E35D0521E022A71D96C
:108BD000121F30D0521F00F09880521E49D0521EF2
:108BE00000F0E280D21E00F0FF80921E41D0D21E23
:108BF0003FD02DE195F83A406C2C09D06869421CB1
:108C00006A610A680A6052F8043B0A60335429E139
:108C10000A680A6052F8043B0A600093002201923D
:108C20004FF0FF332B636A46294600F098F900287D
:108C300040F1188103E195F83A000122FFF76DFF3A
:108C4000C5E90001002904D56869411C69612D222C
:108C50000DE0288F810704D56869411C69612B22CA
:108C600005E0C00721D56869411C696120223254A2
:108C70001BE095F83A000022FFF74FFFC5E900011D
:108C800095F83800010710D5D5E90023002B08BF5F
:108C9000002A0AD044F02000782806D168693021E3
:108CA0003154401C421C6A61345421466869304486
:108CB000E86087E00868C01D20F007000860D0E980
:108CC000002308300860C5E90023D5E90001C80F7A
:108CD00004D06869411C69612D220DE0288F81074D
:108CE00004D56869411C69612B2205E0C00704D5E1
:108CF0006869411C69612022325468693044E86027
:108D00002146284600F036FAACE005F13A025078E8
:108D100020B14FF0FF340FF6043074E01078622871
:108D200008D0682824D06A2812D06C282ED0712848
:108D30000ED02BE00A680A6052F8040B0A6020B9D2
:108D40004FF0FF340FF6EC205DE0E96A017089E036
:108D50000A680A6052F8040B0A6020B94FF0FF3429
:108D60000FF6D0204FE0EA6AD317C0E9002379E07C
:108D70000A680A6052F8040B0A6020B94FF0FF3409
:108D80000FF6B0203FE0E96A01806BE00A680A60F4
:108D900052F8040B0A6020B94FF0FF340FF694200C
:108DA00031E0E96A01605DE00A680A6052F8040B8C
:108DB0000A60002120F0000221F0FF33C5E9002302
:108DC000EE607821284600F02DF94BE06C2285F802
:108DD0003A200B680B6053F8042B0B6052BB4FF02A
:108DE000FF340FF684200EE095F83A206C2AF0D07C
:108DF0000868086050F8044B0860EC603CB94FF01C
:108E0000FF340FF6482000F0B3FD201A76BD2E6B1C
:108E1000002E04D5204600F0CBFD044608E0324683
:108E20000021204600F0E0FD002814BF041B34465A
:108E3000AC6117E0294600F092F8002812D54FF0F7
:108E4000FF3076BD6869411C69612522325409E012
:108E50006969481C686125227254210002D0431CB4
:108E60006B613454002076BD2DE9F0410E46054675
:108E70009046726B7069316AB46A121AB069521AFC
:108E8000716A121AF069521A121A96F83800141BF5
:108E900041070DD4002C0BDD2746B0682021A847E0
:108EA0000028B06057D0F06A401C7F1EF062F4D1F9
:108EB000736942463146284600F098FC00284AD1A2
:108EC000376A002F0ADDB0683021A8470028B0605B
:108ED00041D0F06A401C7F1EF062F4D1B369F268A1
:108EE0003146284600F082FCA8BB776A002F09DDD6
:108EF000B0683021A847B06068B3F06A401C7F1E9C
:108F0000F062F5D1F068B169F3694218314628463C
:108F100000F06CFCF8B9B76A002F09DDB0683021A9
:108F2000A847B060B8B1F06A401C7F1EF062F5D16E
:108F300096F8380041070BD5002C09DDB0682021D8
:108F4000A847B06038B1F06A401C641EF062F5D1E9
:108F50000020BDE8F0814FF0FF30BDE8F0812DE941
:108F6000F8470D46A3B02F6B002F0646904648BF2A
:108F70006FF000470FF60C1400F062FDD4E90023F7
:108F8000696B4018CDE90123812828BF4FF0FF30DD
:108F900042D20024002F33DDD8F8001001AA684621
:108FA00000F0D1FC8146B9F1000F38D4D8F80000A8
:108FB00010B9B9F1010932D44F4521DB6869484441
:108FC00081280AD30021696303AA29463046FFF7A6
:108FD0004BFF040014D40020686103ABD5F814A043
:108FE0004A46694603EB0A00FFF762FCCA44C5F82B
:108FF00014A058F8040B002818BFA7EB0907C9D123
:109000004CB903AA29463046FFF72EFF044614B98F
:10901000002068616863204624B0BDE8F0874FF007
:10902000FF34F8E72DE9FC4307466F293E6908BF86
:10903000082405D041F02000782814BF0A24102409
:109040003C25D7E90023642918BF69299046994631
:1090500005D1002B03D5D8F1000869EB4909B9F116
:10906000000F08BFB8F1000F1FD1386BE8B9082C0A
:109070004CD197F83800010748D530203B2586F8B9
:109080003B0043E000280ED597F8380000F01400AC
:10909000102808D17B6B7969386A5B1A1B1A9A1AF7
:1090A000002AC8BF3A62BDE8F3838DF8001040463D
:1090B00049462246E31700F0C9FC3032D0B26D1E9B
:1090C0003A28019504DB9DF80000A0F151018A18AF
:1090D0007255404649462246E31700F0B7FC8046E9
:1090E0005FEA010908BFB8F1000F03D0F8687119F1
:1090F0008842DCD3082C09D197F83800010705D540
:10910000705D302802D06D1E30207055C5F13C02D4
:10911000BA617119F960386B8242B3DA821A3A6225
:109120004FF6EF70398F01403987BDE8F3832DE9A1
:10913000D04306460F4614464FF00008DFF810945F
:1091400012E0E00707D542464B463046394600F06C
:1091500095FD06460F464046494642464B4600F0BE
:109160008DFD641080468946002CEAD13046394690
:10917000BDE8D0832DE9F84F05468A464AF0200421
:109180008EB0D5E90089612C02AE09D0286B002889
:1091900048BF062003D408BF672C01D101202863F3
:1091A000D5E900014A005215521C0DD10B030BD01A
:1091B000AAF1610103201A29A86102D20FF2CC6141
:1091C00010E00FF2CC610DE04A005215521C0ED196
:1091D0000B030CD1AAF1610103201A29A86116D34F
:1091E0000FF2B461E8680322FFF762FBC0E1CDE94A
:1091F0000C01DDE90C2323F00043B3F5801F0DD2F1
:109200000027002B08BF002A019703D111E00FF2BD
:109210008461E7E701AA00F003FE0AE0CD48CE49E9
:1092200000EB1350DDE90C2301900B40CB491046B5
:109230001943C5E90001612C0DD1E86830210170A6
:10924000821CBAF1610FEA600CBF7821582141708D
:109250006869801C6861D5E90001CDE90C01DDE990
:109260000C2333F0004104BF0028002300F04881A4
:10927000612C40F0A080286B494600284CBF4FF07D
:10928000210B00F1010B404600220023DDE90C898F
:1092900000F0FEFD01990BF1010738BF89F000498C
:1092A000091F002F01918DF808200DF1090040F3EE
:1092B0003581A949009106464046494600220023CF
:1092C00000F0FEFD80F029814800400D00F11C02F5
:1092D00011D0002A0FDD40F2FF739A4205DBA0494E
:1092E00009F000400143002011E0009B194041EAD1
:1092F000025140460BE028F0000039F0004108BF61
:1093000000280FBF49461C22494600F0F1FD804667
:10931000894600F08BFEFF1F002F044609DD00F098
:10932000A3FE02460B464046494600F0AFFE80468B
:109330008946F01D072104E004F00F0200F8012D1A
:109340002411002C01DD491EF6D5491E5CBF002208
:1093500000F8012DF9D5DCE00020194602AA0A44E4
:1093600000E05B1E12F80149491E8442F9D00F2823
:1093700004D10DF10900425C521C4254002904D56D
:109380000198001D02AE5B1C0190581E0CD43118D0
:10939000AAF13A040A783032D7B23A2FA8BFA218FD
:1093A000401E01F80129F5D5286B002840F1A7805F
:1093B000591E2963A3E001996A4A47F29750414335
:1093C00091FBF2F2019229F00046D2F1070204DD8E
:1093D00040463146FFF7ABFE0AE0524200206249A8
:1093E000FFF7A5FE02460B464046314600F0C0FEA0
:1093F0008046662C286B06BF019F0A3706273F1858
:10940000142FC8BF142730208DF8080089460DF1AD
:10941000090000E03046002F34DD0646404649464C
:1094200000F0CAFF01460A4606F1080304200A2696
:10943000B2FBF6F606EB860EA2EB4E02303203F8D4
:10944000012C0A22B6FBF2F202EB820EA6EB4E06CC
:109450003036401E03F8026DE9D1083F002F03F1BA
:109460000806D7DD084600F0BBFF02460B46404623
:10947000494600F00BFE00223C4B00F0FFFB80460B
:109480008946CBE70DF10901401A0DF1090604E008
:109490000199491E401E0191761C31783029F7D080
:1094A000662C02D10199491C03E0652C0CBF0121F7
:1094B00000212B6BCB189842B8BF431E002B1ED443
:1094C000834204DAF05C3528A8BF392000DA302066
:1094D0001946721E02EB010800E05B1E18F80199A4
:1094E000491E8145F9D0392802D1705C401C705466
:1094F000002904D50198401C16465B1C0190019878
:1095000000B200901BB232465146284600F034F8B3
:109510002EE0C61D002F3FF7CFAE30460DF10901FA
:10952000401A03465845C8BF5B46002B0DF109069B
:109530003FF53AAF8342BFF60FAF0DF10900C15CB2
:1095400007297FF709AF0F2007E70000CBCCCC0C31
:109550000000244002FCFFFFFFFF0F800000E03FFF
:109560000000F07FA08601000000F03F84D7974103
:109570000FB0BDE8F08F00002DE9F84783B0064634
:109580008A461746984600F0E0F9B8F1000F406AA5
:10959000356B90F8009002DC4FF00108BFA74AF04D
:1095A0002000BDF93040662808BF641C15D067282C
:1095B00040F0848014F1040FC0F28680AC4280F247
:1095C000838096F83800641C010702D4A845B8BF10
:1095D000454620B22D1A48BF00250FFA84FAF068DC
:1095E000B169BAF1000F25DC4A1C30234354002D29
:1095F00003DC96F83800010703D5F06800F8029004
:10960000521C15EB0A0FB8BF6C4220B244194142FC
:109610004445B8BFA046B26171620FFA88F5F561A2
:10962000F068B3692A4639461844FFF741F9641BCC
:10963000B462C4E022B29045084417DA4246394683
:10964000FFF736F9B0694044B061AAEB0801002D7C
:10965000716203DC96F838100A0705D5F16801F845
:109660000090F069401CF061B562A8E03946FFF750
:109670001FF9B069002D5044A8EB040803DC96F8EC
:1096800038100A0703D5F16801F80090401CB0615A
:109690000FFA88F08542F368B069B8BFA8460FFAA0
:1096A00088F207EB0A011844FFF702F9B1690FFAD3
:1096B00088F00144B161281A706280E0BAF1610F4C
:1096C00014D14FF0700A16E0A84504DA96F8381065
:1096D0000A0758BF45466D1E48BF0025BAF1670FFF
:1096E00014BF4FF0450A4FF0650A04E0BAF1410F8C
:1096F00008BF4FF0500AB169F368481CB061002DF3
:1097000017F8012B5A5403DC96F838100A071BD5BA
:10971000F168431CB36101F80090002D14DDA8F13D
:1097200001080FFA88F039468542F768B8BFA846A5
:109730000FFA88F2F818FFF7BBF8B0690FFA88F152
:1097400008446D1AB0617562F068B1690844002C74
:1097500080F800A003D42B224270811C03E02D214D
:1097600041706442811C00206A460AE023460A24B4
:1097700093FBF4F404EB8405A3EB450302F8013BEF
:10978000401C24B2002CF1DC012806DC4AF0200247
:10979000652A04BF302201F8012B48B9302001F8B6
:1097A000010B07E0401E1DF80030303301F8013B8B
:1097B0000028F7DCF268B0691044091AF16196F8E4
:1097C000380000F0140010280DD17269B169706A78
:1097D0008A18F1698218B06A8A188218706B8242FE
:1097E000BCBF821A326204B0BDE8F087F8B5054606
:1097F0000E4617461C46002074B117F8011BB068CE
:10980000A847B06030B1F06A401CF0620020641ECE
:10981000F3D1F2BD4FF0FF30F2BD00007072696EFF
:1098200074665F733A20256E20646973616C6C6F97
:10983000776564007072696E74663A2062616420B4
:10984000256E20617267756D656E74007072696E49
:1098500074665F733A2062616420257320617267C9
:10986000756D656E740000007072696E74665F736A
:109870003A2062616420256C7320617267756D65A2
:109880006E74000000000000000000006E616E00B9
:109890004E414E00696E6600494E46003000FEE7BC
:1098A000613807E005E0A0F161011A2901D2012029
:1098B000704741381A288041C00F7047A0F121013C
:1098C0000F290AD3A0F13A02062A06D9A0F15B01BA
:1098D000062902D37B380428EDE7012070471C4895
:1098E000704770B45368D418042B09DA41B1057875
:1098F00004F8015B10F8016B16B15B1C491EF3E71D
:10990000536070BC704738B514461D4661B1FFF70F
:10991000E8FF61686A6B204690476FF00102811A88
:1099200002D0491E01D001E003E005E000216160A2
:1099300032BD6FF0010032BD4FF0FF3032BDDA6B47
:109940001047034BDFE7024BF9E70248704700007E
:10995000F02E0020B82E0020C9B202788A421AB137
:109960001CBF10F8012FF9E718BF00207047FEE771
:1099700080B500B906A005490B681BB12222002161
:10998000984701E000F039FD222002BD785B0020FD
:10999000636F6E73747261696E742068616E646C5B
:1099A00065723A20626164206D657373616765005A
:1099B00000F10103810704D010F8011B820781B177
:1099C000FAD10268A2F10131914311F0803104BF54
:1099D00050F8042FF6E709BAB1FA81F100EBD10093
:1099E000401CC01A7047FEE7C9B2830706D0521E5A
:1099F00022D310F8013B9942F7D11FE0083A13D364
:109A000002F1040241EA012141EA014150F8043B1C
:109A1000121F21BF4B40A3F1013C2CEA030C1CF0A8
:109A2000803FF3D0C9B2001F083210F8013B521E2C
:109A300028BF91EA030FF8D818BF0120401E7047D5
:109A400080B5FFF74CFF006C02BDFEE7BBBBE1B188
:109A5000B2F5803F80F07E80022A1ED98C46B1FB91
:109A6000F2F102FB11C31B0443EA1043B3FBF2FC07
:109A700002FB1C3380B240EA0343B3FBF2F002FB6B
:109A8000103240EA0C4000237047022A05D9844670
:109A9000B0FBF2F002FB10C270474AB105D100F0F2
:109AA000010249085FEA3000704700220023704736
:109AB00000F0A6BC0B00020000210020704790427D
:109AC00071EB030CF6D3B3F5803F2FD2F0B5B3FAA8
:109AD00083F7B1FA81F4A7F10F0E3D1B5340CEF18D
:109AE000200602FA0EF2F3415340B5F10F0746D8B3
:109AF0000F3C2C444140C4F12006A040F1414140BC
:109B0000B1FBF3F603FB1611A2FB0645001BA941AE
:109B100002D2761E8018594180EA010221FA0EF322
:109B200062FA0EF200215A403046F0BD30B4B1FB6B
:109B3000F3FC03FB1C11A2FB0C45001BA94103D243
:109B4000ACF1010C8018594130BC02460B4660460E
:109B500000217047B2F1807F65D3F0B5B2FA82F789
:109B6000B1FA81F4C7F10F063D1B22FA06F307F1A3
:109B7000110EF24120355A40B5F10F07B8D94140D6
:109B8000C4F12006A040F1414140B1FBF3FC03FBCE
:109B90001C11A2FB0C45001BA94103D2BCF1010C16
:109BA000801859410F2F12D30F3FC90341EA50418A
:109BB000B1FBF3F603FB1611A2FB0645D4EBC03054
:109BC000A94102D2761E8018594146EACC3C07B31F
:109BD0004140C7F12006B840F1414140B1FBF3F6E6
:109BE00003FB1611A2FB0645001BA94102D2761EFB
:109BF0008018594180EA010221FA0EF3C7F12004CE
:109C000062FA0EF20CFA07F05A402CFA04F13043D3
:109C1000F0BD80EA010221FA0EF3002162FA0EF291
:109C200060465A40F0BD8C46B1FBF2F102FB11C315
:109C30001B0243EA1063B3FBF2FC02FB1C331B0262
:109C40004CEA002043EA1063B3FBF2FC02FB1C3336
:109C50001B024CEA002043EA1063B3FBF2FC02FB58
:109C60001C331B024CEA002043EA1063B3FBF2FCF6
:109C700002FB1C324CEA002000237047B0B581EA99
:109C8000030C0CF0004C40F2FF7515EA11541DBF97
:109C900015EA1357AC42AF4239E0E41923EA4553C1
:109CA00043F48013C90241F0004141EA505EC7020B
:109CB0001100A7FB020200284FF00000EEFB01207C
:109CC0004FF00001E3FB072118BF42F001024018EA
:109CD00000214941E3FB0E01A4F580640F0302D289
:109CE00052004041494154F101046CDD470872F1D2
:109CF000004250F1000051EB0451A1F580115CBF0E
:109D000041EA0C01B0BD4CEA05510020B0BD05EAA6
:109D10001357AC4214BFAF4241E050EA410E1CBFA2
:109D200052EA430E02E061460020B0BD24423C44AA
:109D30001BD15FEA070EF6D0090302BF01460020DF
:109D4000AEF1140EB1FA81F7AEEB070401FA07FE8B
:109D50000C37C7F1200100FA07F7C8404EEA000EA1
:109D600023EA455343F48013A2E733F00043B3FAE8
:109D700083F704BFB2FA82FE77440B3FE41BB7F1CE
:109D8000200E2FBF02FA0EF3BB40C7F1200E22FABD
:109D90000EFE38BF43EA0E03BA40641C82E750EA65
:109DA000410E14BF52EA430E6FF000014FF400174A
:109DB00017EB430F8ABF194617EB410FB5E74CEA83
:109DC00005510020B0BDD4F10104B4F120070FDA31
:109DD000C4F12007520828BF42F0010210FA07F52B
:109DE00001FA07F7E1BF2A43E0403843E1400FE0C2
:109DF000352C98DCC7F1200452EA400220FA07F221
:109E000018BF42F0010231FA07F0A1400A430021D5
:109E100072F1004250F1000051EB0C01B0BDFEE7C1
:109E200010B5144600F002F8226010BDC1F30A53C9
:109E300043B14A0012F5001F28D2A3F2FE32A1EB73
:109E40000251704750EA410C20D001F0004C31EA39
:109E50000C01B1FA81F204BFB0FA80F3D2180B3AC8
:109E6000B2F120032CBF00FA03F1914041EA0C014A
:109E70003EBFC2F1200C20FA0CF31943904052422D
:109E800040F2FD33D21A01EB0351704700227047B4
:109E90004FF4001C1CEB410F94BF1CEB430F09E077
:109EA00041EA030C50EA4C0C52EA0C0C03D29942E2
:109EB00008BF9042704714BF8B4282427047FEE752
:109EC0004FF4001C1CEB410F94BF1CEB430F09E047
:109ED00041EA030C50EA4C0C52EA0C0C03D28B42C0
:109EE00008BF8242704714BF994290427047FEE714
:109EF000124254D440F2FF7C1CEA11530FD0634548
:109F000031D09B1863453CBF01EB0251704701F013
:109F1000004141EA0C510020AFF30080704750EA45
:109F2000410320D001F0004C91EA0C011CD0B1FAA1
:109F300081F30B3B9A420DD9D21A994051EA0C0198
:109F4000C3F1200C20FA0CFC61449840531C40F2F1
:109F5000FF7CD7E7914041EA0C01C2F1200C20FAC6
:109F60000CF3194390407047B0FA80F31533202B5F
:109F7000E0D3202AEED3203A203B9A4209D9D21AC4
:109F800000FA03F141EA0C010020531C40F2FF7C6F
:109F9000B8E700FA02F141EA0C0100207047524292
:109FA00040F2FF7C1CEA11530DD06345DBD0B2EBCD
:109FB000030C3CBFA1EB025170470CF1010221EAF6
:109FC000035141F4801150EA410CCCD001F0004C17
:109FD000352A27DC30B481EA0C01B2F1200309DA1A
:109FE000C2F12003044601FA03F5D0402843D140D2
:109FF0009C400CE0C3F12002450020FA03F418BF96
:10A0000044F0010421FA03F091400C43002174F163
:10A01000004550F1000051EB0C01244230BC7FF4AC
:10A020007BAF70476146002076E7FEE7C1F30A5335
:10A0300040F2FE329B1A14DDD3F120034FEAE172A5
:10A0400008DDC90241EA505141F00040D840801873
:10A050005040704703F2E13010B1D24382F000402B
:10A06000704700207047FEE7C11768B14840401AAA
:10A07000B0FA80F29040D21CC907C2F5846241EA6E
:10A08000025202EBD02140057047FEE770B44FF05A
:10A09000004591EA030F40F1B5816B40841A71EBE2
:10A0A000030603D2001BB141121973414FF4001C87
:10A0B0001CEB410F34BF7CEB430442E00C0DA4EBDE
:10A0C0001356352E4FDC45EAC323DB0A45EAC1218E
:10A0D000C912B6F120050DDD63FA05F6EB4086EAFC
:10A0E0000305124218BF45F00105C01851F10001E7
:10A0F0000CD213E062FA06F5F2405540F3415A40A3
:10A10000B340F3405A408018594107D349085FEAE9
:10A1100030005FEA350528BF45F0010501F58011E3
:10A12000420875F1004250F1000041EB04514E002D
:10A1300016F5001F70BC38BF70470020090D0905D7
:10A1400070471CEB410F10D252EA43060BD0BCEB18
:10A15000410F05D80C0DAB43661E342EB6DD02E070
:10A16000AB438018594170BC704770BC7047FEE724
:10A17000F0B540F2FF7581EA030C0CF0004C15EAD3
:10A1800011541DBF15EA1357AC42AF42E5E0BC4184
:10A19000C1F31301C3F31303801A994143F48013ED
:10A1A00004D2641E4000494180185941C90241EA65
:10A1B0005051B1FBF3F603FB1611A2FB0675D7EB6A
:10A1C000C020A94102D2761E80185941C90241EA35
:10A1D0005051B1FBF3FE03FB1E11A2FB0E75D7EB32
:10A1E000C020A94103D2AEF1010E80185941890265
:10A1F00041EA9051760546EA8E2EB1FBF3F603FB59
:10A200001611A2FB0675D7EB8020A94102D2761E5B
:10A2100080185941C90241EA50514EEA060EB1FB7D
:10A22000F3F603FB1611A2FB0675D7EBC020A9417C
:10A2300002D2761E80185941C90241EA5051B1FB41
:10A24000F3F703FB1711A2FB0735D3EBC020A9419D
:10A2500067F100070CBF004247F0010766F3D527FE
:10A260004FEA1E31B80814F5806412DDBD0775F1A0
:10A27000004250EB0E5051EB045111F5801F5CBFB2
:10A2800041EA0C01F0BD4CF07F6141F0E04100205B
:10A29000F0BDBD076D0840EA0E5041F48011D4F1C5
:10A2A0000104B4F120060ADAC4F120060200E040FD
:10A2B00001FA06F3E1401843B24015430EE0342C96
:10A2C00013DCC6F1200445EA40056D0820FA06F2C9
:10A2D000154321FA06F0A1400D43002175F100421B
:10A2E00050F1000051EB0C01F0BD00205FEA0C01C1
:10A2F000F0BDCFB992185B41B3FA83F704BFB2FA4D
:10A3000082F6BF190B3FB7F120062FBF02FA06F302
:10A31000BB40C7F1200622FA06F638BF3343BA40E5
:10A320001CB1E419641E33E77F4231F00041B1FAF9
:10A3300081F404BFB0FA80F6A4190B3CB4F12006F6
:10A340002FBF00FA06F1A140C4F1200620FA06F65C
:10A3500038BF3143A0403C1B1AE7AC421ABF05EAA4
:10A360001357AF4212E050EA41061CBF52EA4306BF
:10A37000BFE750EA4107304661461CBF41EA05513C
:10A38000F0BD52EA430C08BFC143F0BD00204FF4BA
:10A39000001616EB410F98BF16EB430F08BF16EBE4
:10A3A000410F24BFC14305E016EB430F0CBF6146CC
:10A3B0004CEA0551F0BDFEE7400D491840EA812006
:10A3C0000CD2490DA1F58061491C40F0004005DB2D
:10A3D000D1F11F0154BFC840C0177047002070471B
:10A3E000014648B1B0FA80F18840C91CC1F58461CA
:10A3F000090501EBD02140057047012000F0B8B8F5
:10A400007047FEE7841A71EB030604D26E40001B0E
:10A41000B141121973414FF4001C1CEB410F34BFC2
:10A420007CEB430683E00C0DA4EB1356362E00F3B1
:10A430007C80012E45EAC32341DC43EA525312BF1C
:10A44000D20292025B08240545EAC12141EA50513B
:10A45000D2EBC020994125D407D1B0FA80F610FA8A
:10A4600006F162D00020203608E0B1FA81F6B14052
:10A47000C6F1200220FA02F21143B0404FEAF47410
:10A48000B4EB465434F001064FEA74040AD8D6F50A
:10A490000016760D04F00044F04061FA06F25040D8
:10A4A000F1404840C00A40EA415021F0004128BF35
:10A4B0005FEA500550F1000044EBD12135E0DB0AA2
:10A4C00045EAC121C90AB6F120050EDD42EA024281
:10A4D000120CC5F1200603FA06F6EB4042EA060527
:10A4E0006D42984161F100010DE062FA06F5F2401B
:10A4F000554063FA06FC82EA0C02F3405A406D4272
:10A50000904161EB030111F4801F05D1641E6205C7
:10A5100002D06D004041494121F48011430875F19A
:10A52000004350F1000041EB045170BC70471CEB3C
:10A53000410F15D223F0004352EA43060BD04FEAF5
:10A540004C0CBCEB410F04D80C0D661E342EB7DD4D
:10A55000EBE7801A994150EA410608BF0021E4E781
:10A5600008BF1CEB430F28BF6FF00001DDE7FEE7DB
:10A570002021090326311820ABBEF9E738B50400C5
:10A580000D002A002100DFF82C0A00F0FDFD32BD8D
:10A5900080B5DFF8200A00F019FE02BD70B5DFF8C3
:10A5A000180A01F08CF905002C00002C02D02000C4
:10A5B00001F028FA012001F0DFFC06003400002C35
:10A5C00002D0200001F01EFA70BD2DE9F8478BB0D3
:10A5D00004002078002805D0032802D004285CD08D
:10A5E0006BE06AE064260027DFF8D059A8463A00FD
:10A5F00031004046FDF7C6FADFF8C4096168896991
:10A600000160DFF8C0196268928B0A80B1F800809F
:10A61000D0F80090AA46424649465046FEF748F90F
:10A62000687B412838D1A87B502835D1E87B542855
:10A6300032D122260027DFF89089C1463A00310046
:10A640004846FDF79FFA606890F913000A90287F4A
:10A650000990E87E0890A87E0790687E0690287E84
:10A660000590E87D0490687D0390287D0290E87C49
:10A670000190A87C00906B7C2A7CDFF85019404642
:10A6800001F03CFD4146DFF8480901F057FDDFF8D5
:10A6900044090168491C01600FE0DFF83C19DFF84C
:10A6A0003C09DFF83C29801AC008000450F0030080
:10A6B000FDF7B4FCFFF772FFFFE70CB0BDE8F087D1
:10A6C0002DE9FF41102500266C46320029002000AC
:10A6D000FDF758FA00208DF8040001208DF80C00D9
:10A6E000DFF8D488DFF8FC286946404601F0A1F87D
:10A6F00007003C00002C02D0200001F083F9DFF8B5
:10A70000E8280321404600F00CFF05002C00002C37
:10A7100002D0200001F076F900220421404600F02A
:10A720002AFF06003400002C02D0200001F06AF954
:10A73000BDE8FF812DE9F84F05002878002840F09A
:10A74000CB80684601F026FE002840F0C4809DF8CA
:10A750000000412803D09DF8000061283FD1DFF8B8
:10A760008C48FFF715FF20702078012832D0012097
:10A77000DFF87C188870DFF85C6831689EA001F013
:10A78000DDFC00273800C0B2316888421CDA5FF077
:10A790001D085FF00009DFF85CA854464A464146B0
:10A7A0002000FDF7EFF91D215046FFF7E7FE834635
:10A7B0005C46002C02D0200001F024F951468FA005
:10A7C00001F0BCFC7F1CDDE78DA001F0B7FC002090
:10A7D000306080E00020DFF8181888707BE09DF87A
:10A7E0000000572803D09DF80000772873D1DFF8C8
:10A7F000084894F86000002829D094F861000028E7
:10A8000025D194F86200002821D000263000C0B283
:10A8100094F86010491C884207DA3000C0B2215C0D
:10A82000A4A001F08BFC761CF0E700263000C0B23B
:10A8300094F86210491C88424DDA3000C0B22044BE
:10A8400090F840109BA001F079FC761CEEE794F89C
:10A85000600000283BD094F86100002837D094F8BD
:10A860006200002833D000263000C0B294F8601097
:10A87000491C884207DA3000C0B2215C8DA001F08B
:10A880005DFC761CF0E700263000C0B294F8611041
:10A89000491C884209DA3000C0B2204490F82010E8
:10A8A00084A001F04BFC761CEEE700263000C0B21D
:10A8B00094F86210491C88420DDA3000C0B220447E
:10A8C00090F840107BA001F039FC761CEEE7DFF831
:10A8D0002C0701F033FCFFE7BDE8F18F2DE9FC41C7
:10A8E00005000E000027288810280DD0112806D05A
:10A8F000212828D03B2836D056283FD049E0DFF821
:10A90000000701F01BFC44E0DFF8F80601F016FC3C
:10A91000072001F031FB80464446002C02D0200085
:10A9200001F070F8DFF8E006A98801800188DFF8FF
:10A93000DC0601F09CFD07003C00002C02D020004A
:10A9400001F060F825E0DFF8C8060088ADF80000E7
:10A950006946A8888FDF07003C00002C02D0200049
:10A9600001F050F815E01321A88876DF07003C00BD
:10A97000002C02D0200001F045F80AE01321A8883D
:10A9800076DF07003C00002C02D0200001F03AF8EE
:10A99000FFE7BDE8F3817CB501F0FDFE05002C006A
:10A9A000002C02D0200001F02DF800200090694614
:10A9B000012001F0B1FF06003400002C02D020007D
:10A9C00001F020F8684602F076F805002C00002C13
:10A9D00002D0200001F016F873BD38B50021DFF871
:10A9E000340602F09EFA05002C00002C02D0200054
:10A9F00001F008F831BD0000256400002C2573002B
:10AA00003A0D0A0010B50400200000F0FBFF10BD55
:10AA10002DE9FF41DFF80006D0E90023CDE900234E
:10AA2000DFF8F80500680290DFF8F405029002A94B
:10AA3000DFF8D80501F004FD05002C00002C02D041
:10AA4000200000F0DFFF082600276C463A003100A6
:10AA50002000FDF797F89DF8060010F0F00050F088
:10AA600001008DF806009DF8060010F00F0050F070
:10AA700010008DF806009DF8070010F0F00050F06F
:10AA800001008DF807009DF8070010F00F0050F04E
:10AA900010008DF807006946DFF8880502F0D4FC45
:10AAA00080464446002C02D0200000F0ABFFBDE8F9
:10AAB000FF8100002563000070B5002001F05CFA02
:10AAC00005002C00002C02D0200000F09BFF02F0BB
:10AAD00060FD06003400002C02D0200000F092FF40
:10AAE00033DF05002C00002C02D0200000F08AFF8C
:10AAF00070BD70B505002800C0B2002810D0032832
:10AB000011D1DFF8240501F019FB022001F034FA1D
:10AB100006003400002C02D0200000F073FF02E099
:10AB2000FFF7CAFFFFE770BDF0B5ABB0AC2400265D
:10AB30006D46320021002800FDF724F802208DF830
:10AB4000000001208DF8020006208DF8030001208E
:10AB5000ADF81000DFF8D404059001208DF87C00DA
:10AB60004FF49670229044F250602390DFF8C004B6
:10AB70002990DFF8C0746946380002F0C1FE050074
:10AB8000002D2C00002C02D0200000F03BFF012102
:10AB9000380002F0B2FE2BB0F0BD70B50500287889
:10ABA00000280BD13B21DFF86004008876DF060027
:10ABB0003400002C02D0200000F024FF70BD10B53E
:10ABC0000400200000F01EFF10BDF0B587B01C256A
:10ABD00000266C46320029002000FCF7D3FF00203D
:10ABE00000905FF4203001905FF470200290032009
:10ABF0008DF80C000020ADF80E0000208DF810003C
:10AC0000DFF834040590DFF834040690684603F05A
:10AC1000FCF807003C00002C02D0200000F0F2FEFF
:10AC200007B0F0BD10B50400200003F0B0FA20001A
:10AC300003F0ECFA20780C2803D1002000F0CCF8C7
:10AC4000FFE710BD2DE9FC4103F063FE05002C0079
:10AC5000002C02D0200000F0D5FE052600276C460F
:10AC60003A0031002000FCF78DFF9DF8000050F005
:10AC700001008DF800009DF8000010F0FD008DF837
:10AC800000009DF8000010F0FB008DF800009DF81A
:10AC9000000010F0F7008DF800009DF8000010F0A3
:10ACA0008F0050F030008DF800009DF8000010F08B
:10ACB0007F008DF8000007208DF8010010208DF82E
:10ACC00002009DF8030050F001008DF803009DF88C
:10ACD000030050F002008DF803009DF8040050F0CE
:10ACE00001008DF804009DF8040050F002008DF87A
:10ACF0000400684603F0CFFE80464446002C02D094
:10AD0000200000F07FFEDFF8380303F0ABFE050003
:10AD10002C00002C02D0200000F074FEBDE8F3816E
:10AD200038B58AB004A8DFF81C131822FDF7D0FD4F
:10AD3000DFF8140300904FF400700190DFF80C036B
:10AD400002904FF4805003900723DFF804236946F4
:10AD500004A801F0C1FA05002C00002C02D020004C
:10AD600000F050FE0BB030BD38B54FF4004100206C
:10AD7000FCF776FF05002C00002C02D0200000F02C
:10AD800041FE04F0A3F831BD38B504F0D8F8050051
:10AD90002C00002C02D0200000F034FE31BD80B524
:10ADA000FDF799F9002801D104F0D6F801BD38B5B6
:10ADB000A8498A488A4A801AC008000450F0030053
:10ADC000FDF72CF903F0E6FE05002C00002C02D064
:10ADD000200000F017FE31BD70B505002800C0B29C
:10ADE000012802D1FFF7E3FF14E00321914802F0AC
:10ADF0002BFE060098497948794A801AC008000459
:10AE000050F00300FDF70AF93400002C02D02000B6
:10AE100000F0F8FD70BD38B50400754DA878002825
:10AE200013D16868401C6860686864281CD3E8789F
:10AE3000002819D10120E87000F0F9FC88495E482B
:10AE400000F07EFDFFF7AAFB0EE000206860E878C6
:10AE5000012809D100F0EBFC8249574800F070FD51
:10AE6000FFF79CFB0020E87031BD70B504F0ECFBEF
:10AE700005002C00002C02D0200000F0C3FD7A4A0F
:10AE80000121764804F006FC06003400002C02D0B4
:10AE9000200000F0B7FD70BD2DE9FF419DF80000D6
:10AEA00010F0F00050F001008DF800009DF8000057
:10AEB00010F00F0050F010008DF8000008226B49D0
:10AEC00068467CDF05002C00002C02D0200000F03A
:10AED00099FD0826002701AC3A0031002000FCF75C
:10AEE00051FE5020ADF80400A020ADF8060000206F
:10AEF000ADF808004FF4C870ADF80A0001A87ADF79
:10AF000080464446002C02D0200000F07BFDBDE8C6
:10AF1000FF8170B505002800C0B2042806D00728BC
:10AF200012D00A2823D1FFF7C7FD20E013213648AD
:10AF3000008876DF0600082E05D03400002C02D0F1
:10AF4000200000F05FFD12E02F4800884FF6FF71EF
:10AF500088420BD1374802F065FE0600082E05D066
:10AF60003400002C02D0200000F04CFDFFE770BD43
:10AF7000F8B505003E49032001F00CF80600340046
:10AF8000002C02D0200000F03DFD6946002002F0B8
:10AF900049FB07003C00002C02D0200000F032FDED
:10AFA0009DF80000022801D1012000E00020287057
:10AFB000F1BD0000AC9403005855002090540020CF
:10AFC000485B0020865B002018580020148703008F
:10AFD00054970300445B0020009503006072030057
:10AFE00028720300CBA502006C9A03009E5B002030
:10AFF000C85A002020590020F45400201095030066
:10B000002095030030950300443000205C5A002056
:10B010005689020088590020D0980300709A0300D6
:10B0200005AA0200F457002030930300182E0020D8
:10B03000F3AA0200DC4700209BAB0200BFAB02007A
:10B0400025AC0200D4900300344A00205030002088
:10B0500035A7020040950300C8980300689A0300D2
:10B06000509503006095030017AE0200609703003F
:10B0700013AF020080B5FFF777FEFFF7F6FEFFF78C
:10B080004FFE6846FFF774FFFFF77EFEFFF783FC75
:10B09000FFF702FFFFF7A1FCFFF7BAFCFFF744FD43
:10B0A000FFF793FDFFF7CEFDFFF70AFBFFF776FAF8
:10B0B000FFF775FEFCE70100086800680A6852683F
:10B0C000824201D3101A03E08968491C081A10183B
:10B0D00070472DE9F84F86B004000D001600206877
:10B0E00007682068406801900198B84204D3DDF8F1
:10B0F0000480B8EB070805E0D4F8088018F10108CF
:10B10000B8EB07086068D4F80C9009FB0709B04554
:10B1100015D3D4F80CA00AFB06FACDF80090AB4684
:10B12000524600995846FDF7C3FBA068F1198842C2
:10B1300001D3F01900E000202168086021E0E068F8
:10B1400000FB08F0009000980590CDF81090AA46FA
:10B15000059A04995046FDF7ABFBB6EB080AE06888
:10B1600000FB0AF0039060680290DDF800B01BEB72
:10B17000050B039A02995846FDF79AFB2068C0F820
:10B1800000A007B0BDE8F08FF8B505000E00140070
:10B190000027002C01D1002017E000208DF80000CE
:10B1A0006846FDF707FB2800FFF785FFA04205D39F
:10B1B000220031002800FFF78CFF01E00520070086
:10B1C0009DF80000FDF7FCFA3800F2BD016809683F
:10B1D00002685268914201D1012000E00020C0B213
:10B1E0007047FEE72DE9F84F86B005000E00B01C51
:10B1F000009015F1220715F1180895F82090A87D08
:10B2000000281ED000F013FB5FF0140A5FF0000B63
:10B2100001AC5A4651462000FCF7B4FC4B46DBB269
:10B220004246390000988CDF040006208DF80400A7
:10B230000294002C05D0286B002802D001A8296BAD
:10B24000884707B0BDE8F08F01000A78D2B29209B2
:10B2500012F003021000C0B2002805D0022807D067
:10B2600004D3032806D007E0032007E0002005E010
:10B27000022003E0012001E043F20220704738B5CC
:10B2800004000D002878C0B24008A178C9B2B0EB24
:10B29000510F08D10622E11C681C04F099FA00281D
:10B2A00001D1012000E0002032BD2DE9F041040071
:10B2B0000D002E00EF795FF0000840463900C0B263
:10B2C000C9B288420ED24146C9B207204143314437
:10B2D0002000FFF7D4FF002801D0012003E018F17F
:10B2E0000108EAE70020BDE8F0812DE9FC410400F7
:10B2F0000D002600E71D3878002801D004205BE00F
:10B300005FF000084046C0B2002811D10622290093
:10B310004346DBB20720434306EB0300401C04F026
:10B3200057FA002801D1002046E018F10108E9E7AA
:10B3300000200100C9B206290ADA0100C9B2494257
:10B34000294449796A460300DBB2D154401CF0E736
:10B350006846FFF779FF010043F202200A0003006C
:10B3600092B29A4228D03A7807204243B05C0A0051
:10B37000400852413B7807204343F254002210001A
:10B38000C0B206280DDA3B780720434306EB0300E2
:10B390001300DBB218441300DBB2EB5C4370521CA9
:10B3A000EDE700221000C0B2062801DA521CF9E7CE
:10B3B0003878401C38700020BDE8F6812DE9F84F40
:10B3C00004000D0015F10A0695F814B0AF7B5FF08C
:10B3D000000AB4F81C805FF0000948463900C0B28A
:10B3E000C9B2884218D24846C0B206EB8002414634
:10B3F00089B2A06904F002FE002806D01AF1010A01
:10B400005846C0B2002804D106E05846C0B2002811
:10B4100002D119F10109E0E75846C0B2002805D071
:10B4200050463900C0B2C9B2884207D05846C0B2AF
:10B43000002805D15046C0B2002801D0012000E00C
:10B440000020BDE8F28F70B4020012F10A0312F17D
:10B450000E052878002801D0042017E000242000E1
:10B46000C0B200280AD12000C0B233F820000E88F4
:10B47000B04201D1002009E0641CF0E72878461CA6
:10B480002E700E68C0B243F82060002070BC704778
:10B490002DE9F84304000D0015F11006AF7CB4F857
:10B4A0001C805FF0000948463900C0B2C9B288422A
:10B4B0000FD24846C0B206EB4002414689B2A069AD
:10B4C00004F014FE002801D0012003E019F1010965
:10B4D000E9E70020BDE8F28370B4020012F1100326
:10B4E00012F112052878002801D0042017E000246A
:10B4F0002000C0B200280BD12000C0B233F81000E9
:10B500000E00B6B2B04201D1002008E0641CEFE7A3
:10B510002878461C2E70C0B223F81010002070BC92
:10B520007047F8B505000E001400002D01D10E2063
:10B5300020E0002C01D10E201CE03000C0B2022817
:10B5400004D016D304280DD006D312E0270039000A
:10B550002800FFF7CAFE0DE0270039002800FFF79A
:10B5600072FF07E02788390089B22800FFF7B4FF8F
:10B5700000E00720F2BD70B504000D001600002C9D
:10B5800001D10E2017E015F01F0F01D1072012E0A6
:10B59000200000F011F802002100A80701D50120C9
:10B5A0000872680701D50120C873280701D501205A
:10B5B000C8740E75002070BD10B40100002901D1BF
:10B5C0000E200CE011F108020020107011F10F03A1
:10B5D0000020187011F1130400202070002010BC0E
:10B5E00070472DE9F84F86B004000D005FF0000AA7
:10B5F0005FF0000B142600270DF104083A0031001B
:10B600004046FCF7BFFA14F122000590200000F03C
:10B6100094F800280FD002208DF80400029501A8AC
:10B62000216B884714F1540100208ADF2900200093
:10B63000FFF7D8FD7EE0267D002794F80880E07BA8
:10B640008DF8000094F813904046C0B2002811D045
:10B650001AF1010A21002800FFF727FE002809D06F
:10B660001BF1010B9DF80C0050F002008DF80C004E
:10B67000012007009DF80000002811D01AF1010AEE
:10B6800021002800FFF79AFE002809D01BF1010BCA
:10B690009DF80C0050F004008DF80C00012007000C
:10B6A0004846C0B2002811D01AF1010A2100280032
:10B6B000FFF7EEFE002809D01BF1010B9DF80C00EE
:10B6C00050F008008DF80C000120070003208DF8D1
:10B6D000040002953000C0B200280DD058465146F3
:10B6E000C0B2C9B2884207D100208DF804002900F9
:10B6F0002000FFF777FD13E03000C0B200280BD127
:10B700003800C0B2002807D000208DF804002900BE
:10B710002000FFF767FD03E003208DF80400029589
:10B72000206B002802D001A8216B884714F1540136
:10B7300000208ADF07B0BDE8F08F010091F82200F9
:10B74000C0F3C100C0B2012806D091F82200C0F3B6
:10B75000C100C0B2032801D1012000E000207047E1
:10B7600090F8221051F0040180F822104FF4F0718B
:10B770008184C1840021018590F8221011F0E70135
:10B7800080F82210012180F8231070474FF4C8710F
:10B79000C1830621018318214183002181837047E1
:10B7A0002DE9F04385B004000D002E1D14275FF035
:10B7B0000008E946424639004846FCF7E3F930788C
:10B7C00001280ED1206B00280BD004208DF800003A
:10B7D00014F12200049030788DF804006846216B43
:10B7E000884705B0BDE8F0832DE9F04385B004003B
:10B7F0000D002E1D14275FF00008E946424639006F
:10B800004846FCF7BFF9206B00280DD005208DF8C5
:10B81000000014F12200049001A831000922FDF774
:10B8200047F86846216B884705B0BDE8F0838BDF99
:10B8300070472DE9F84304000D001600002C01D1DB
:10B840000E203AE0266316275FF00008A146424624
:10B8500039004846FCF796F9002D1FD02879A075CD
:10B86000287B84F820002868002806D014F12200E4
:10B8700029680E22FDF71CF802E02000FFF770FF98
:10B88000A868002806D014F11800A9680822FDF75E
:10B890000FF80BE02000FFF779FF07E02000FFF72B
:10B8A0005FFF2000FFF772FF0020A07514F1340045
:10B8B00060651F20A4F858000020BDE8F283F0B5B1
:10B8C00085B00400002C01D10E202FE014250026A5
:10B8D0006F46320029003800FCF754F9FFF7A7FF44
:10B8E0002000FFF72AFF002808D0206B002805D091
:10B8F00001208DF800006846216B884714F154013F
:10B9000014F122008ADF0500082D0ED0002D0CD086
:10B910002A0008490848094BC01AC008000450F022
:10B920000100FCF785FB280000E0002005B0F0BD19
:10B9300000000000748C03004872030028720300AA
:10B9400038B505000C00002D01D10E200EE0FFF7E8
:10B950006EFF002C06D015F1220021000E22FCF70C
:10B96000A7FF02E02800FFF7FBFE002032BD2DE913
:10B97000F84185B004000D0014260027E8463A007F
:10B9800031004046FCF7FEF807208DF80000281D26
:10B9900001902888ADF8080014F122000490206B73
:10B9A000002802D06846216B884706B0BDE8F081C8
:10B9B0002DE9F04104000D002E0014F1080714F1E8
:10B9C00004082088102815D01B2809D01D2802D073
:10B9D00020280AD013E039003000FFF702FE0EE005
:10B9E00041463000FFF7DCFE09E041463000FFF73A
:10B9F000FBFE04E041463000FFF7B9FFFFE7BDE87A
:10BA0000F081FEE71FB504006846002100220023F4
:10BA100080E80E0002946A46002144F2010004F01E
:10BA2000A1FB1FBD01005FF0A040704711B581B0C0
:10BA30000C0001A8FFF7F6FF019900EB8101D1F896
:10BA4000001731F44031019A00EB8202C2F800176E
:10BA5000019900EB8101D1F800172200D2B251EA1E
:10BA60000241019A00EB8202C2F8001713BD10B523
:10BA70000400002C03D1200004F095FC00E000201D
:10BA800010BD2DE9F04706000F005FF000085FF0E1
:10BA900000093000C0B204F0A1FC0500002D4DD11A
:10BAA0003800C0B2002829D002283FD046D2DFF8A3
:10BAB000D495032000FB05F019F800008046032010
:10BAC00000FB05F04844407800280ED0DFF8B8A508
:10BAD00052464FF40041DFF8B405006803F0F9FD69
